{
  "contractName": "RockPapperScissors",
  "abi": [
    {
      "constant": true,
      "inputs": [
        {
          "name": "",
          "type": "uint256"
        }
      ],
      "name": "ticketToOwner",
      "outputs": [
        {
          "name": "",
          "type": "address"
        }
      ],
      "payable": false,
      "stateMutability": "view",
      "type": "function"
    },
    {
      "constant": false,
      "inputs": [],
      "name": "renounceOwnership",
      "outputs": [],
      "payable": false,
      "stateMutability": "nonpayable",
      "type": "function"
    },
    {
      "constant": false,
      "inputs": [
        {
          "name": "_count",
          "type": "uint8"
        }
      ],
      "name": "setMaxiumPlayerTicketCount",
      "outputs": [],
      "payable": false,
      "stateMutability": "nonpayable",
      "type": "function"
    },
    {
      "constant": true,
      "inputs": [],
      "name": "owner",
      "outputs": [
        {
          "name": "",
          "type": "address"
        }
      ],
      "payable": false,
      "stateMutability": "view",
      "type": "function"
    },
    {
      "constant": true,
      "inputs": [],
      "name": "isOwner",
      "outputs": [
        {
          "name": "",
          "type": "bool"
        }
      ],
      "payable": false,
      "stateMutability": "view",
      "type": "function"
    },
    {
      "constant": false,
      "inputs": [
        {
          "name": "_fee",
          "type": "uint256"
        }
      ],
      "name": "setTicketFee",
      "outputs": [],
      "payable": false,
      "stateMutability": "nonpayable",
      "type": "function"
    },
    {
      "constant": true,
      "inputs": [
        {
          "name": "",
          "type": "uint256"
        }
      ],
      "name": "ticketBox",
      "outputs": [
        {
          "name": "ticketNumber",
          "type": "uint256"
        }
      ],
      "payable": false,
      "stateMutability": "view",
      "type": "function"
    },
    {
      "constant": false,
      "inputs": [
        {
          "name": "newOwner",
          "type": "address"
        }
      ],
      "name": "transferOwnership",
      "outputs": [],
      "payable": false,
      "stateMutability": "nonpayable",
      "type": "function"
    },
    {
      "anonymous": false,
      "inputs": [
        {
          "indexed": false,
          "name": "ticketId",
          "type": "uint256"
        },
        {
          "indexed": false,
          "name": "ticketNumber",
          "type": "uint256"
        }
      ],
      "name": "NewTicket",
      "type": "event"
    },
    {
      "anonymous": false,
      "inputs": [
        {
          "indexed": true,
          "name": "previousOwner",
          "type": "address"
        },
        {
          "indexed": true,
          "name": "newOwner",
          "type": "address"
        }
      ],
      "name": "OwnershipTransferred",
      "type": "event"
    },
    {
      "constant": false,
      "inputs": [
        {
          "name": "_ticketNumber",
          "type": "uint256"
        }
      ],
      "name": "buyTicket",
      "outputs": [],
      "payable": true,
      "stateMutability": "payable",
      "type": "function"
    }
  ],
  "bytecode": "0x608060405266038d7ea4c680006001556003600260006101000a81548160ff021916908360ff1602179055506002600760046101000a81548160ff021916908360ff1602179055506003336000806101000a81548173ffffffffffffffffffffffffffffffffffffffff021916908373ffffffffffffffffffffffffffffffffffffffff1602179055506000809054906101000a900473ffffffffffffffffffffffffffffffffffffffff1673ffffffffffffffffffffffffffffffffffffffff16600073ffffffffffffffffffffffffffffffffffffffff167f8be0079c531659141344cd1fd0a4f28419497f9722a3daafe3b4186f6b6457e060405160405180910390a380600760006101000a81548163ffffffff021916908363ffffffff160217905550506108b7806101366000396000f300608060405260043610610099576000357c0100000000000000000000000000000000000000000000000000000000900463ffffffff1680632b08e8241461009e57806367dd74ca1461010b578063715018a61461012b578063874928c3146101425780638da5cb5b146101725780638f32d59b146101c9578063b2105f42146101f8578063c15ebda814610225578063f2fde38b14610266575b600080fd5b3480156100aa57600080fd5b506100c9600480360381019080803590602001909291905050506102a9565b604051808273ffffffffffffffffffffffffffffffffffffffff1673ffffffffffffffffffffffffffffffffffffffff16815260200191505060405180910390f35b610129600480360381019080803590602001909291905050506102dc565b005b34801561013757600080fd5b506101406103a2565b005b34801561014e57600080fd5b50610170600480360381019080803560ff169060200190929190505050610474565b005b34801561017e57600080fd5b506101876104a5565b604051808273ffffffffffffffffffffffffffffffffffffffff1673ffffffffffffffffffffffffffffffffffffffff16815260200191505060405180910390f35b3480156101d557600080fd5b506101de6104ce565b604051808215151515815260200191505060405180910390f35b34801561020457600080fd5b5061022360048036038101908080359060200190929190505050610525565b005b34801561023157600080fd5b5061025060048036038101908080359060200190929190505050610542565b6040518082815260200191505060405180910390f35b34801561027257600080fd5b506102a7600480360381019080803573ffffffffffffffffffffffffffffffffffffffff16906020019092919050505061056b565b005b60046020528060005260406000206000915054906101000a900473ffffffffffffffffffffffffffffffffffffffff1681565b600760049054906101000a900460ff1660ff1660038054905010151561030157600080fd5b600760009054906101000a900463ffffffff1663ffffffff168110151561032757600080fd5b6001543414151561033757600080fd5b600260009054906101000a900460ff1660ff16600560003373ffffffffffffffffffffffffffffffffffffffff1673ffffffffffffffffffffffffffffffffffffffff1681526020019081526020016000205410151561039657600080fd5b61039f8161058a565b50565b6103aa6104ce565b15156103b557600080fd5b600073ffffffffffffffffffffffffffffffffffffffff166000809054906101000a900473ffffffffffffffffffffffffffffffffffffffff1673ffffffffffffffffffffffffffffffffffffffff167f8be0079c531659141344cd1fd0a4f28419497f9722a3daafe3b4186f6b6457e060405160405180910390a360008060006101000a81548173ffffffffffffffffffffffffffffffffffffffff021916908373ffffffffffffffffffffffffffffffffffffffff160217905550565b61047c6104ce565b151561048757600080fd5b80600260006101000a81548160ff021916908360ff16021790555050565b60008060009054906101000a900473ffffffffffffffffffffffffffffffffffffffff16905090565b60008060009054906101000a900473ffffffffffffffffffffffffffffffffffffffff1673ffffffffffffffffffffffffffffffffffffffff163373ffffffffffffffffffffffffffffffffffffffff1614905090565b61052d6104ce565b151561053857600080fd5b8060018190555050565b60038181548110151561055157fe5b906000526020600020016000915090508060000154905081565b6105736104ce565b151561057e57600080fd5b6105878161074f565b50565b60006105e4600160036020604051908101604052808681525090806001815401808255809150509060018203906000526020600020016000909192909190915060008201518160000155505061084990919063ffffffff16565b9050336004600083815260200190815260200160002060006101000a81548173ffffffffffffffffffffffffffffffffffffffff021916908373ffffffffffffffffffffffffffffffffffffffff16021790555061068b6001600560003373ffffffffffffffffffffffffffffffffffffffff1673ffffffffffffffffffffffffffffffffffffffff1681526020019081526020016000205461086a90919063ffffffff16565b600560003373ffffffffffffffffffffffffffffffffffffffff1673ffffffffffffffffffffffffffffffffffffffff168152602001908152602001600020819055506106f56001600660008581526020019081526020016000205461086a90919063ffffffff16565b60066000848152602001908152602001600020819055507fbbd7b10a46d4fbc3d9817a4a57b2ebecc37ba0fa541457a3a4ecacf8088a14ff8183604051808381526020018281526020019250505060405180910390a15050565b600073ffffffffffffffffffffffffffffffffffffffff168173ffffffffffffffffffffffffffffffffffffffff161415151561078b57600080fd5b8073ffffffffffffffffffffffffffffffffffffffff166000809054906101000a900473ffffffffffffffffffffffffffffffffffffffff1673ffffffffffffffffffffffffffffffffffffffff167f8be0079c531659141344cd1fd0a4f28419497f9722a3daafe3b4186f6b6457e060405160405180910390a3806000806101000a81548173ffffffffffffffffffffffffffffffffffffffff021916908373ffffffffffffffffffffffffffffffffffffffff16021790555050565b60008083831115151561085b57600080fd5b82840390508091505092915050565b600080828401905083811015151561088157600080fd5b80915050929150505600a165627a7a72305820023346491540fed60a52ef37eb69066e3dd5f7341a00cf8e31597bf909cda70f0029",
  "source": "pragma solidity ^0.4.24;\n\nimport \"./Lottery.sol\";\n/*\nRules:\n    Rock > Scissors > Paper > Rock\n    0      1          2       0\n*/\ncontract RockPapperScissors is Lottery(3) {\n    uint8 maxiumPlayerCount = 2;\n    function buyTicket(uint _ticketNumber) external payable {\n       require(ticketBox.length < maxiumPlayerCount);\n       require(_ticketNumber < maxiumTicketCount);// 0 ~ (maxiumTicketCount-1)\n       require(msg.value == ticketFee);\n       require(ownerTicketCount[msg.sender] < maxiumPlayerTicketCount);\n       _createTicket(_ticketNumber);\n    }\n}\n",
  "sourcePath": "/Users/we/tron-project/jLottery/contracts/RockPapperScissors.sol",
  "compiler": {
    "name": "solc",
    "version": "0.4.24+commit.e67f0147.Emscripten.clang"
  },
  "schemaVersion": "3.0.0",
  "updatedAt": "2018-12-21T03:30:28.165Z",
  "devdoc": {
    "methods": {
      "isOwner()": {
        "return": "true if `msg.sender` is the owner of the contract."
      },
      "owner()": {
        "return": "the address of the owner."
      },
      "renounceOwnership()": {
        "details": "Allows the current owner to relinquish control of the contract."
      },
      "transferOwnership(address)": {
        "details": "Allows the current owner to transfer control of the contract to a newOwner.",
        "params": {
          "newOwner": "The address to transfer ownership to."
        }
      }
    }
  },
  "userdoc": {
    "methods": {
      "renounceOwnership()": {
        "notice": "Renouncing to ownership will leave the contract without an owner. It will not be possible to call the functions with the `onlyOwner` modifier anymore."
      }
    }
  }
}